{
  "address": "0xCf7Ed3AccA5a467e9e704C703E8D87F634fB0Fc9",
  "abi": [
    {
      "inputs": [
        {
          "internalType": "address",
          "name": "vrfCoordinatorV2",
          "type": "address"
        },
        {
          "internalType": "uint256",
          "name": "entranceFee",
          "type": "uint256"
        },
        {
          "internalType": "bytes32",
          "name": "gasLane",
          "type": "bytes32"
        },
        {
          "internalType": "uint64",
          "name": "subscriptionId",
          "type": "uint64"
        },
        {
          "internalType": "uint32",
          "name": "callbackGasLimit",
          "type": "uint32"
        },
        {
          "internalType": "uint256",
          "name": "interval",
          "type": "uint256"
        }
      ],
      "stateMutability": "nonpayable",
      "type": "constructor"
    },
    {
      "inputs": [
        {
          "internalType": "address",
          "name": "have",
          "type": "address"
        },
        {
          "internalType": "address",
          "name": "want",
          "type": "address"
        }
      ],
      "name": "OnlyCoordinatorCanFulfill",
      "type": "error"
    },
    {
      "inputs": [],
      "name": "Raffle__NotEnoughEthEntered",
      "type": "error"
    },
    {
      "inputs": [],
      "name": "Raffle__NotOpen",
      "type": "error"
    },
    {
      "inputs": [],
      "name": "Raffle__TransferFailed",
      "type": "error"
    },
    {
      "inputs": [
        {
          "internalType": "uint256",
          "name": "currentBalance",
          "type": "uint256"
        },
        {
          "internalType": "uint256",
          "name": "numPlayers",
          "type": "uint256"
        },
        {
          "internalType": "uint256",
          "name": "raffleState",
          "type": "uint256"
        }
      ],
      "name": "Raffle__UpkeepNotNeeded",
      "type": "error"
    },
    {
      "anonymous": false,
      "inputs": [
        {
          "indexed": true,
          "internalType": "address",
          "name": "player",
          "type": "address"
        }
      ],
      "name": "RaffleEnter",
      "type": "event"
    },
    {
      "anonymous": false,
      "inputs": [
        {
          "indexed": true,
          "internalType": "uint256",
          "name": "requestId",
          "type": "uint256"
        }
      ],
      "name": "RequestedRaffleWinner",
      "type": "event"
    },
    {
      "anonymous": false,
      "inputs": [
        {
          "indexed": true,
          "internalType": "address",
          "name": "winner",
          "type": "address"
        }
      ],
      "name": "WinnerPicked",
      "type": "event"
    },
    {
      "inputs": [
        {
          "internalType": "bytes",
          "name": "",
          "type": "bytes"
        }
      ],
      "name": "checkUpkeep",
      "outputs": [
        {
          "internalType": "bool",
          "name": "upkeepNeeded",
          "type": "bool"
        },
        {
          "internalType": "bytes",
          "name": "",
          "type": "bytes"
        }
      ],
      "stateMutability": "view",
      "type": "function"
    },
    {
      "inputs": [],
      "name": "enterRaffle",
      "outputs": [],
      "stateMutability": "payable",
      "type": "function"
    },
    {
      "inputs": [],
      "name": "getEntranceFee",
      "outputs": [
        {
          "internalType": "uint256",
          "name": "",
          "type": "uint256"
        }
      ],
      "stateMutability": "view",
      "type": "function"
    },
    {
      "inputs": [],
      "name": "getInterval",
      "outputs": [
        {
          "internalType": "uint256",
          "name": "",
          "type": "uint256"
        }
      ],
      "stateMutability": "view",
      "type": "function"
    },
    {
      "inputs": [],
      "name": "getLatestTimeStamp",
      "outputs": [
        {
          "internalType": "uint256",
          "name": "",
          "type": "uint256"
        }
      ],
      "stateMutability": "view",
      "type": "function"
    },
    {
      "inputs": [],
      "name": "getNumWords",
      "outputs": [
        {
          "internalType": "uint256",
          "name": "",
          "type": "uint256"
        }
      ],
      "stateMutability": "pure",
      "type": "function"
    },
    {
      "inputs": [],
      "name": "getNumberOfPlayers",
      "outputs": [
        {
          "internalType": "uint256",
          "name": "",
          "type": "uint256"
        }
      ],
      "stateMutability": "view",
      "type": "function"
    },
    {
      "inputs": [
        {
          "internalType": "uint256",
          "name": "index",
          "type": "uint256"
        }
      ],
      "name": "getPlayer",
      "outputs": [
        {
          "internalType": "address",
          "name": "",
          "type": "address"
        }
      ],
      "stateMutability": "view",
      "type": "function"
    },
    {
      "inputs": [],
      "name": "getRaffleState",
      "outputs": [
        {
          "internalType": "enum Raffle.RaffleState",
          "name": "",
          "type": "uint8"
        }
      ],
      "stateMutability": "view",
      "type": "function"
    },
    {
      "inputs": [],
      "name": "getRecentWinner",
      "outputs": [
        {
          "internalType": "address",
          "name": "",
          "type": "address"
        }
      ],
      "stateMutability": "view",
      "type": "function"
    },
    {
      "inputs": [],
      "name": "getRequestConfirmations",
      "outputs": [
        {
          "internalType": "uint256",
          "name": "",
          "type": "uint256"
        }
      ],
      "stateMutability": "pure",
      "type": "function"
    },
    {
      "inputs": [
        {
          "internalType": "bytes",
          "name": "",
          "type": "bytes"
        }
      ],
      "name": "performUpkeep",
      "outputs": [],
      "stateMutability": "nonpayable",
      "type": "function"
    },
    {
      "inputs": [
        {
          "internalType": "uint256",
          "name": "requestId",
          "type": "uint256"
        },
        {
          "internalType": "uint256[]",
          "name": "randomWords",
          "type": "uint256[]"
        }
      ],
      "name": "rawFulfillRandomWords",
      "outputs": [],
      "stateMutability": "nonpayable",
      "type": "function"
    },
    {
      "inputs": [],
      "name": "s_recentWinner",
      "outputs": [
        {
          "internalType": "address",
          "name": "",
          "type": "address"
        }
      ],
      "stateMutability": "view",
      "type": "function"
    }
  ],
  "transactionHash": "0x546f1e42c71a2505d08a6eab4168a2977c84946f08c3c5ece667a1a9aacb90cc",
  "args": [
    "0x5FbDB2315678afecb367f032d93F642f64180aa3",
    "10000000000000000",
    "0xd89b2bf150e3b9e13446986e571fb9cab24b13cea0a43ea20a6049a85cc807cc",
    "1",
    "500000",
    "30"
  ],
  "numDeployments": 1,
  "solcInputHash": "b5f5ab56a07cac1d6952ffb5a74976a2",
  "bytecode": "0x6101406040523480156200001257600080fd5b5060405162001859380380620018598339818101604052810190620000389190620001ab565b858073ffffffffffffffffffffffffffffffffffffffff1660808173ffffffffffffffffffffffffffffffffffffffff1660601b8152505050846000819055508573ffffffffffffffffffffffffffffffffffffffff1660a08173ffffffffffffffffffffffffffffffffffffffff1660601b815250508360e081815250508267ffffffffffffffff1660c08167ffffffffffffffff1660c01b815250508163ffffffff166101008163ffffffff1660e01b815250506000600260006101000a81548160ff02191690836001811115620001175762000116620002b3565b5b02179055504260038190555080610120818152505050505050505062000369565b6000815190506200014981620002e7565b92915050565b600081519050620001608162000301565b92915050565b60008151905062000177816200031b565b92915050565b6000815190506200018e8162000335565b92915050565b600081519050620001a5816200034f565b92915050565b60008060008060008060c08789031215620001cb57620001ca620002e2565b5b6000620001db89828a0162000138565b9650506020620001ee89828a0162000166565b95505060406200020189828a016200014f565b94505060606200021489828a0162000194565b93505060806200022789828a016200017d565b92505060a06200023a89828a0162000166565b9150509295509295509295565b6000620002548262000265565b9050919050565b6000819050919050565b600073ffffffffffffffffffffffffffffffffffffffff82169050919050565b6000819050919050565b600063ffffffff82169050919050565b600067ffffffffffffffff82169050919050565b7f4e487b7100000000000000000000000000000000000000000000000000000000600052602160045260246000fd5b600080fd5b620002f28162000247565b8114620002fe57600080fd5b50565b6200030c816200025b565b81146200031857600080fd5b50565b620003268162000285565b81146200033257600080fd5b50565b62000340816200028f565b81146200034c57600080fd5b50565b6200035a816200029f565b81146200036657600080fd5b50565b60805160601c60a05160601c60c05160c01c60e0516101005160e01c61012051611486620003d3600039600081816108000152610894015260006106af0152600061066b0152600061068c0152600061062f01526000818161035e01526103b201526114866000f3fe6080604052600436106100dd5760003560e01c806353a2c19a1161007f5780638638b0c6116100595780638638b0c61461027e57806391ad27b4146102a9578063e55ae4e8146102d4578063fd6673f514610311576100dd565b806353a2c19a146101ea5780635f1b0fd8146102155780636e04ff0d14610240576100dd565b80632cfcc539116100bb5780632cfcc53914610161578063320229eb1461016b5780634585e33b14610196578063473f1ddc146101bf576100dd565b806309bc33a7146100e2578063115cbaf51461010d5780631fe543e314610138575b600080fd5b3480156100ee57600080fd5b506100f761033c565b604051610104919061108c565b60405180910390f35b34801561011957600080fd5b50610122610345565b60405161012f9190611071565b60405180910390f35b34801561014457600080fd5b5061015f600480360381019061015a9190610e65565b61035c565b005b61016961041c565b005b34801561017757600080fd5b5061018061056d565b60405161018d919061108c565b60405180910390f35b3480156101a257600080fd5b506101bd60048036038101906101b89190610d75565b610577565b005b3480156101cb57600080fd5b506101d4610777565b6040516101e19190610faa565b60405180910390f35b3480156101f657600080fd5b506101ff6107a1565b60405161020c919061108c565b60405180910390f35b34801561022157600080fd5b5061022a6107b0565b604051610237919061108c565b60405180910390f35b34801561024c57600080fd5b5061026760048036038101906102629190610dc2565b6107bd565b604051610275929190610fee565b60405180910390f35b34801561028a57600080fd5b5061029361086a565b6040516102a09190610faa565b60405180910390f35b3480156102b557600080fd5b506102be610890565b6040516102cb919061108c565b60405180910390f35b3480156102e057600080fd5b506102fb60048036038101906102f69190610e0b565b6108b8565b6040516103089190610faa565b60405180910390f35b34801561031d57600080fd5b50610326610900565b604051610333919061108c565b60405180910390f35b60008054905090565b6000600260009054906101000a900460ff16905090565b7f000000000000000000000000000000000000000000000000000000000000000073ffffffffffffffffffffffffffffffffffffffff163373ffffffffffffffffffffffffffffffffffffffff161461040e57337f00000000000000000000000000000000000000000000000000000000000000006040517f1cf993f4000000000000000000000000000000000000000000000000000000008152600401610405929190610fc5565b60405180910390fd5b610418828261090d565b5050565b600054341015610458576040517f066d781f00000000000000000000000000000000000000000000000000000000815260040160405180910390fd5b6000600181111561046c5761046b611366565b5b600260009054906101000a900460ff16600181111561048e5761048d611366565b5b146104c5576040517f1425571c00000000000000000000000000000000000000000000000000000000815260040160405180910390fd5b6001339080600181540180825580915050600190039060005260206000200160009091909190916101000a81548173ffffffffffffffffffffffffffffffffffffffff021916908373ffffffffffffffffffffffffffffffffffffffff1602179055503373ffffffffffffffffffffffffffffffffffffffff167f0805e1d667bddb8a95f0f09880cf94f403fb596ce79928d9f29b74203ba284d460405160405180910390a2565b6000600354905090565b6000610591604051806020016040528060008152506107bd565b509050806106005747600180549050600260009054906101000a900460ff1660018111156105c2576105c1611366565b5b6040517f584327aa0000000000000000000000000000000000000000000000000000000081526004016105f7939291906110a7565b60405180910390fd5b6001600260006101000a81548160ff0219169083600181111561062657610625611366565b5b021790555060007f000000000000000000000000000000000000000000000000000000000000000073ffffffffffffffffffffffffffffffffffffffff16635d3b1d307f00000000000000000000000000000000000000000000000000000000000000007f000000000000000000000000000000000000000000000000000000000000000060037f000000000000000000000000000000000000000000000000000000000000000060016040518663ffffffff1660e01b81526004016106f095949392919061101e565b602060405180830381600087803b15801561070a57600080fd5b505af115801561071e573d6000803e3d6000fd5b505050506040513d601f19601f820116820180604052508101906107429190610e38565b9050807fcd6e45c8998311cab7e9d4385596cac867e20a0587194b954fa3a731c93ce78b60405160405180910390a250505050565b6000600260019054906101000a900473ffffffffffffffffffffffffffffffffffffffff16905090565b6000600163ffffffff16905090565b6000600361ffff16905090565b600060606000600260009054906101000a900460ff1660018111156107e5576107e4611366565b5b600060018111156107f9576107f8611366565b5b14905060007f00000000000000000000000000000000000000000000000000000000000000006003544261082d9190611187565b1190506000806001805490501190506000804711905083801561084d5750825b80156108565750815b801561085f5750805b955050505050915091565b600260019054906101000a900473ffffffffffffffffffffffffffffffffffffffff1681565b60007f0000000000000000000000000000000000000000000000000000000000000000905090565b6000600182815481106108ce576108cd611395565b5b9060005260206000200160009054906101000a900473ffffffffffffffffffffffffffffffffffffffff169050919050565b6000600180549050905090565b60006001805490508260008151811061092957610928611395565b5b602002602001015161093b91906112d7565b905060006001828154811061095357610952611395565b5b9060005260206000200160009054906101000a900473ffffffffffffffffffffffffffffffffffffffff16905080600260016101000a81548173ffffffffffffffffffffffffffffffffffffffff021916908373ffffffffffffffffffffffffffffffffffffffff1602179055506000600260006101000a81548160ff021916908360018111156109e7576109e6611366565b5b0217905550600067ffffffffffffffff811115610a0757610a066113c4565b5b604051908082528060200260200182016040528015610a355781602001602082028036833780820191505090505b5060019080519060200190610a4b929190610b40565b504260038190555060008173ffffffffffffffffffffffffffffffffffffffff1647604051610a7990610f95565b60006040518083038185875af1925050503d8060008114610ab6576040519150601f19603f3d011682016040523d82523d6000602084013e610abb565b606091505b5050905080610af6576040517fa1d04b3900000000000000000000000000000000000000000000000000000000815260040160405180910390fd5b8173ffffffffffffffffffffffffffffffffffffffff167f5b690ec4a06fe979403046eaeea5b3ce38524683c3001f662c8b5a829632f7df60405160405180910390a25050505050565b828054828255906000526020600020908101928215610bb9579160200282015b82811115610bb85782518260006101000a81548173ffffffffffffffffffffffffffffffffffffffff021916908373ffffffffffffffffffffffffffffffffffffffff16021790555091602001919060010190610b60565b5b509050610bc69190610bca565b5090565b5b80821115610be3576000816000905550600101610bcb565b5090565b6000610bfa610bf584611103565b6110de565b90508083825260208201905082856020860282011115610c1d57610c1c6113fd565b5b60005b85811015610c4d5781610c338882610d4b565b845260208401935060208301925050600181019050610c20565b5050509392505050565b6000610c6a610c658461112f565b6110de565b905082815260208101848484011115610c8657610c85611402565b5b610c91848285611264565b509392505050565b600082601f830112610cae57610cad6113f8565b5b8135610cbe848260208601610be7565b91505092915050565b60008083601f840112610cdd57610cdc6113f8565b5b8235905067ffffffffffffffff811115610cfa57610cf96113f3565b5b602083019150836001820283011115610d1657610d156113fd565b5b9250929050565b600082601f830112610d3257610d316113f8565b5b8135610d42848260208601610c57565b91505092915050565b600081359050610d5a81611439565b92915050565b600081519050610d6f81611439565b92915050565b60008060208385031215610d8c57610d8b61140c565b5b600083013567ffffffffffffffff811115610daa57610da9611407565b5b610db685828601610cc7565b92509250509250929050565b600060208284031215610dd857610dd761140c565b5b600082013567ffffffffffffffff811115610df657610df5611407565b5b610e0284828501610d1d565b91505092915050565b600060208284031215610e2157610e2061140c565b5b6000610e2f84828501610d4b565b91505092915050565b600060208284031215610e4e57610e4d61140c565b5b6000610e5c84828501610d60565b91505092915050565b60008060408385031215610e7c57610e7b61140c565b5b6000610e8a85828601610d4b565b925050602083013567ffffffffffffffff811115610eab57610eaa611407565b5b610eb785828601610c99565b9150509250929050565b610eca816111bb565b82525050565b610ed9816111cd565b82525050565b610ee8816111d9565b82525050565b6000610ef982611160565b610f03818561116b565b9350610f13818560208601611273565b610f1c81611411565b840191505092915050565b610f3081611252565b82525050565b6000610f4360008361117c565b9150610f4e82611422565b600082019050919050565b610f62816111f6565b82525050565b610f7181611224565b82525050565b610f808161122e565b82525050565b610f8f8161123e565b82525050565b6000610fa082610f36565b9150819050919050565b6000602082019050610fbf6000830184610ec1565b92915050565b6000604082019050610fda6000830185610ec1565b610fe76020830184610ec1565b9392505050565b60006040820190506110036000830185610ed0565b81810360208301526110158184610eee565b90509392505050565b600060a0820190506110336000830188610edf565b6110406020830187610f86565b61104d6040830186610f59565b61105a6060830185610f77565b6110676080830184610f77565b9695505050505050565b60006020820190506110866000830184610f27565b92915050565b60006020820190506110a16000830184610f68565b92915050565b60006060820190506110bc6000830186610f68565b6110c96020830185610f68565b6110d66040830184610f68565b949350505050565b60006110e86110f9565b90506110f482826112a6565b919050565b6000604051905090565b600067ffffffffffffffff82111561111e5761111d6113c4565b5b602082029050602081019050919050565b600067ffffffffffffffff82111561114a576111496113c4565b5b61115382611411565b9050602081019050919050565b600081519050919050565b600082825260208201905092915050565b600081905092915050565b600061119282611224565b915061119d83611224565b9250828210156111b0576111af611308565b5b828203905092915050565b60006111c682611204565b9050919050565b60008115159050919050565b6000819050919050565b60008190506111f182611425565b919050565b600061ffff82169050919050565b600073ffffffffffffffffffffffffffffffffffffffff82169050919050565b6000819050919050565b600063ffffffff82169050919050565b600067ffffffffffffffff82169050919050565b600061125d826111e3565b9050919050565b82818337600083830152505050565b60005b83811015611291578082015181840152602081019050611276565b838111156112a0576000848401525b50505050565b6112af82611411565b810181811067ffffffffffffffff821117156112ce576112cd6113c4565b5b80604052505050565b60006112e282611224565b91506112ed83611224565b9250826112fd576112fc611337565b5b828206905092915050565b7f4e487b7100000000000000000000000000000000000000000000000000000000600052601160045260246000fd5b7f4e487b7100000000000000000000000000000000000000000000000000000000600052601260045260246000fd5b7f4e487b7100000000000000000000000000000000000000000000000000000000600052602160045260246000fd5b7f4e487b7100000000000000000000000000000000000000000000000000000000600052603260045260246000fd5b7f4e487b7100000000000000000000000000000000000000000000000000000000600052604160045260246000fd5b600080fd5b600080fd5b600080fd5b600080fd5b600080fd5b600080fd5b6000601f19601f8301169050919050565b50565b6002811061143657611435611366565b5b50565b61144281611224565b811461144d57600080fd5b5056fea26469706673582212200dcc545b3f99d19329897ee0125a8fffbdcbb45e889d9022be2e2a2bd983b01664736f6c63430008070033",
  "devdoc": {
    "kind": "dev",
    "methods": {},
    "version": 1
  },
  "userdoc": {
    "kind": "user",
    "methods": {},
    "version": 1
  },
  "storageLayout": {
    "storage": [
      {
        "astId": 193,
        "contract": "contracts/Raffle.sol:Raffle",
        "label": "i_entranceFee",
        "offset": 0,
        "slot": "0",
        "type": "t_uint256"
      },
      {
        "astId": 196,
        "contract": "contracts/Raffle.sol:Raffle",
        "label": "s_players",
        "offset": 0,
        "slot": "1",
        "type": "t_array(t_address_payable)dyn_storage"
      },
      {
        "astId": 214,
        "contract": "contracts/Raffle.sol:Raffle",
        "label": "s_raffleState",
        "offset": 0,
        "slot": "2",
        "type": "t_enum(RaffleState)191"
      },
      {
        "astId": 216,
        "contract": "contracts/Raffle.sol:Raffle",
        "label": "s_recentWinner",
        "offset": 1,
        "slot": "2",
        "type": "t_address"
      },
      {
        "astId": 218,
        "contract": "contracts/Raffle.sol:Raffle",
        "label": "s_lastTimeStamp",
        "offset": 0,
        "slot": "3",
        "type": "t_uint256"
      }
    ],
    "types": {
      "t_address": {
        "encoding": "inplace",
        "label": "address",
        "numberOfBytes": "20"
      },
      "t_address_payable": {
        "encoding": "inplace",
        "label": "address payable",
        "numberOfBytes": "20"
      },
      "t_array(t_address_payable)dyn_storage": {
        "base": "t_address_payable",
        "encoding": "dynamic_array",
        "label": "address payable[]",
        "numberOfBytes": "32"
      },
      "t_enum(RaffleState)191": {
        "encoding": "inplace",
        "label": "enum Raffle.RaffleState",
        "numberOfBytes": "1"
      },
      "t_uint256": {
        "encoding": "inplace",
        "label": "uint256",
        "numberOfBytes": "32"
      }
    }
  }
}